:020000040000FA
:100000000C945D000C9485000C9485000C94850084
:100010000C9485000C9485000C9485000C9485004C
:100020000C9485000C9485000C9485000C9485003C
:100030000C9485000C9485000C9485000C9485002C
:100040000C943A030C9485000C94AA030C9484033A
:100050000C9485000C9485000C9485000C9485000C
:100060000C9485000C94850000000008000201003B
:100070000003040700000000000000000000000072
:10008000250028002B0000000000240027002A0083
:10009000040404040404040402020202020203032E
:1000A0000303030301020408102040800102040836
:1000B0001020010204081020DC0311241FBECFEF22
:1000C000D8E0DEBFCDBF11E0A0E0B1E0EAEFFBE099
:1000D00002C005900D92AA35B107D9F722E0AAE532
:1000E000B1E001C01D92AC31B207E1F710E0CDE5FF
:1000F000D0E004C02197FE010E94F505CC35D10760
:10010000C9F70E9440040C94FB050C94000090E099
:10011000FC01EC55FF4F249180579F4FFC018491C7
:10012000882399F090E0880F991FFC01EA57FF4F50
:10013000A591B491FC01E458FF4F859194918FB73C
:10014000F894EC91E22BEC938FBF089590E0FC01C2
:10015000E859FF4F2491FC01EC55FF4F3491FC010D
:10016000E057FF4FE491EE23C9F0222339F023300A
:1001700001F1A8F4213019F1223029F1F0E0EE0F5D
:10018000FF1FE458FF4FA591B4918FB7F894EC91FD
:10019000611126C030953E233C938FBF08952730D0
:1001A000A9F02830C9F0243049F7809180008F7D74
:1001B00003C0809180008F7780938000DFCF84B56B
:1001C0008F7784BDDBCF84B58F7DFBCF8091B0006E
:1001D0008F778093B000D2CF8091B0008F7DF9CF20
:1001E0003E2BDACF1F93CF93DF93182FEB010E94A2
:1001F0008700209739F460E0812FDF91CF911F9124
:100200000C94A600CF3FD10511F461E0F5CFE12FAA
:10021000F0E0E859FF4FE491E33031F140F4E13090
:10022000B1F0E230E1F0C038D1057CF7E4CFE7303F
:1002300029F1E83059F1E430B1F780918000806213
:1002400080938000D0938B00C0938A0004C084B553
:10025000806884BDC7BDDF91CF911F91089584B59B
:10026000806284BDC8BDF7CF809180008068809394
:100270008000D0938900C0938800EDCF8091B000BA
:1002800080688093B000C093B300E5CF8091B00048
:1002900080628093B000C093B400DDCF8E3008F050
:1002A0008E508770806480937C0080917A00806497
:1002B00080937A0080917A0086FDFCCF809178004F
:1002C0009091790008953FB7F894809167019091DB
:1002D0006801A0916901B0916A0126B5A89B05C08B
:1002E0002F3F19F00196A11DB11D3FBFBA2FA92FB5
:1002F000982F8827BC01CD01620F711D811D911DB2
:1003000042E0660F771F881F991F4A95D1F708951D
:100310008F929F92AF92BF92CF92DF92EF92FF9215
:100320006B017C010E9463014B015C01C114D1048B
:10033000E104F104B9F00E946301681979098A099E
:100340009B09683E73408105910580F321E0C21A44
:10035000D108E108F10888EE880E83E0981EA11C00
:10036000B11CE4CFFF90EF90DF90CF90BF90AF90A3
:100370009F908F900895AF92BF92CF92DF92EF92AD
:10038000FF920F931F93CF93DF936C017B018B013F
:10039000040F151FEB015E01AE18BF08C017D1078F
:1003A00059F06991D601ED91FC910190F081E02D19
:1003B000C6010995892B79F7C501DF91CF911F916E
:1003C0000F91FF90EF90DF90CF90BF90AF90089586
:1003D000FC01538D448D252F30E0842F90E0821B4B
:1003E000930B541710F0CF96089501970895FC01D0
:1003F000918D828D981761F0A28DAE0FBF2FB11D28
:100400005D968C91928D9F5F9F73928F90E008957F
:100410008FEF9FEF0895FC01918D828D981731F039
:10042000828DE80FF11D858D90E008958FEF9FEF8D
:100430000895FC01918D228D892F90E0805C9F4F63
:10044000821B91098F73992708958BE691E00E9492
:10045000190221E0892B09F420E0822F089580E021
:1004600090E0892B29F00E94250281110C94000054
:100470000895FC01A48DA80FB92FB11DA35ABF4F39
:100480002C91848D90E001968F739927848FA68993
:10049000B7892C93A089B1898C91837080648C93E7
:1004A000938D848D981306C00288F389E02D808196
:1004B0008F7D80830895EF92FF920F931F93CF93C8
:1004C000DF93EC0181E0888F9B8D8C8D98131AC08F
:1004D000E889F989808185FF15C09FB7F894EE8976
:1004E000FF896083E889F9898081837080648083D3
:1004F0009FBF81E090E0DF91CF911F910F91FF901E
:10050000EF900895F62E0B8D10E00F5F1F4F0F73C5
:100510001127E02E8C8D8E110CC00FB607FCFACF80
:10052000E889F989808185FFF5CFCE010E943902E3
:10053000F1CFEB8DEC0FFD2FF11DE35AFF4FF08251
:100540009FB7F8940B8FEA89FB8980818062CFCFB7
:10055000CF93DF93EC01888D8823B9F0AA89BB89FA
:10056000E889F9898C9185FD03C0808186FD0DC0E5
:100570000FB607FCF7CF8C9185FFF2CF808185FF06
:10058000EDCFCE010E943902E9CFDF91CF910895DE
:10059000FC0101900020E9F73197AF01481B590B8E
:1005A000BC018BE691E00C94BB018F929F92AF92BD
:1005B000BF920F931F93CF93DF93CDB7DEB7A19771
:1005C0000FB6F894DEBF0FBECDBF19A2423008F4BB
:1005D0004AE08E010F5D1F4F842E912CB12CA12C6F
:1005E000A50194010E94BD05E62FB901CA01EA30B8
:1005F000F4F4E05DD801EE938D01232B242B252B01
:1006000079F790E080E0109719F0CD010E94C802C0
:10061000A1960FB6F894DEBF0FBECDBFDF91CF918C
:100620001F910F91BF90AF909F908F900895E95CBC
:10063000E1CFCF92DF92EF92FF92CF93DF936B01E6
:100640007C016DE28BE691E00E945B02EC01662783
:100650007727CB016C197D098E099F094AE00E941A
:10066000D5028C0F9D1FDF91CF91FF90EF90DF900F
:10067000CF9008951F920F920FB60F9211242F93CF
:100680003F938F939F93AF93BF938091630190911A
:100690006401A0916501B09166013091620123E08F
:1006A000230F2D3758F50196A11DB11D209362012E
:1006B0008093630190936401A0936501B0936601F8
:1006C0008091670190916801A0916901B0916A01E0
:1006D0000196A11DB11D8093670190936801A093BD
:1006E0006901B0936A01BF91AF919F918F913F9142
:1006F0002F910F900FBE0F901F90189526E8230F93
:100700000296A11DB11DD2CF1F920F920FB60F926C
:1007100011242F933F934F935F936F937F938F9306
:100720009F93AF93BF93EF93FF938BE691E00E946B
:100730003902FF91EF91BF91AF919F918F917F917E
:100740006F915F914F913F912F910F900FBE0F903E
:100750001F9018951F920F920FB60F9211242F938E
:100760008F939F93EF93FF93E0917B01F0917C0136
:100770008081E0918101F091820182FD1BC0908116
:10078000809184018F5F8F7320918501821741F0E2
:10079000E0918401F0E0E559FE4F958F809384014C
:1007A000FF91EF919F918F912F910F900FBE0F901E
:1007B0001F9018958081F4CFCF93DF93EBE6F1E0A3
:1007C0001382128288EE93E0A0E0B0E084839583E8
:1007D000A683B78384E091E09183808385EC90E0E9
:1007E0009587848784EC90E09787868780EC90E0FB
:1007F000918B808B81EC90E0938B828B82EC90E0EC
:10080000958B848B86EC90E0978B868B118E128E65
:10081000138E148EE6E1F2E080E190E09183808314
:100820008FEF9FEF9383828395838483E0E1F2E0EF
:1008300021E130E031832083938382839583848315
:10084000C8E0D2E085E090E09983888387E090E07B
:100850009B838A8386E090E09D838C8388E090E090
:100860009F838E8385E00E9487008A810E94870093
:100870008C810E9487008E81DF91CF910C9487003C
:10088000789484B5826084BD84B5816084BD85B56B
:10089000826085BD85B5816085BD80916E00816077
:1008A00080936E001092810080918100826080931D
:1008B000810080918100816080938100809180001F
:1008C0008160809380008091B10084608093B1004A
:1008D0008091B00081608093B00080917A00846044
:1008E00080937A0080917A00826080937A00809170
:1008F0007A00816080937A0080917A00806880938A
:100900007A001092C100E0917B01F0917C0182E0BD
:100910008083E0917701F09178011082E091790174
:10092000F0917A018FEC808310928301E0917F0136
:10093000F091800186E08083E0917D01F0917E015D
:10094000808180618083E0917D01F0917E018081D2
:1009500088608083E0917D01F0917E0180818068D4
:100960008083E0917D01F0917E0180818F7D808385
:1009700082E191E00E94C8028DE391E00E94C802EA
:1009800060ED77E080E090E00E94880180E491E0F3
:100990000E94C8028DE391E00E94C80264EF71E0FA
:1009A00080E090E00E94880184E6C82ED12CE12CE2
:1009B000F12C90E0292E90E0392E2AE0822E912C05
:1009C0000AE510E032E3A32EB12C809116020E94BA
:1009D0004E01EC01909361018093600180911002BF
:1009E0000E944E0190935F0180935E01BE01DD0F76
:1009F000880B990B97FF81C00E94190387E591E04E
:100A00000E94C80260915E0170915F01072E000C88
:100A1000880B990B97FF75C00E9419038DE391E035
:100A20000E94C802809160019091610120915E0155
:100A300030915F018D3B42E094070CF466C02D3B82
:100A400042E034070CF461C0B0925D01A0925C01F9
:100A5000B0925B01A0925A01A0915C01B0915D013E
:100A6000B7FF02C0B0E0A0E0A536B10514F0A4E6DF
:100A7000B0E02FEF30E00E94EE05A70196010E9442
:100A80009E05290161E080910A020E94A600B20140
:100A9000809108020E94F200A0915A01B0915B017E
:100AA000B7FF02C0B0E0A0E0A536B10514F0A4E69F
:100AB000B0E02FEF30E00E94EE05A70196010E9402
:100AC0009E05290161E080910E020E94A600B201FC
:100AD00080910C020E94F20060E070E0CB010E9465
:100AE00088012114310409F470CF0E942502882363
:100AF00009F46BCF0E94000068CF4AE00E94D50243
:100B00007DCF4AE00E94D50289CF2D3B32404CF088
:100B100010935D0100935C0190925B0180925A01F9
:100B20009BCF8D3B92400CF497CF90925D018092C9
:100B30005C0110935B0100935A018ECF052E97FB49
:100B40001EF400940E94B50557FD07D00E94BD0514
:100B500007FC03D04EF40C94B505509540953095A4
:100B600021953F4F4F4F5F4F089590958095709519
:100B700061957F4F8F4F9F4F0895A1E21A2EAA1BB8
:100B8000BB1BFD010DC0AA1FBB1FEE1FFF1FA2173D
:100B9000B307E407F50720F0A21BB30BE40BF50B3A
:100BA000661F771F881F991F1A9469F760957095C3
:100BB000809590959B01AC01BD01CF010895A29F46
:100BC000B001B39FC001A39F700D811D1124911D21
:100BD000B29F700D811D1124911D08950E94DF05A3
:100BE000B7FF0895821B930B0895EE0FFF1F05902A
:100BF000F491E02D0994F894FFCF000000005B020F
:100C0000BB01E801A8021902F7010B0257656C63EA
:100C10006F6D6520746F206578706572696D656EA3
:100C20007420352E32202D204C696E6520466F6C65
:100C30006C6F77696E67000D0A004C696E65205312
:100C4000656E736F722052656164696E67733A20D6
:040C50000009000097
:107E0000112484B714BE81FFF0D085E080938100F7
:107E100082E08093C00088E18093C10086E0809377
:107E2000C20080E18093C4008EE0C9D0259A86E02C
:107E300020E33CEF91E0309385002093840096BBD3
:107E4000B09BFECF1D9AA8958150A9F7CC24DD24C4
:107E500088248394B5E0AB2EA1E19A2EF3E0BF2EE7
:107E6000A2D0813461F49FD0082FAFD0023811F036
:107E7000013811F484E001C083E08DD089C08234E0
:107E800011F484E103C0853419F485E0A6D080C0E4
:107E9000853579F488D0E82EFF2485D0082F10E0AE
:107EA000102F00270E291F29000F111F8ED06801E7
:107EB0006FC0863521F484E090D080E0DECF843638
:107EC00009F040C070D06FD0082F6DD080E0C81688
:107ED00080E7D80618F4F601B7BEE895C0E0D1E017
:107EE00062D089930C17E1F7F0E0CF16F0E7DF06D8
:107EF00018F0F601B7BEE89568D007B600FCFDCFD4
:107F0000A601A0E0B1E02C9130E011968C91119780
:107F100090E0982F8827822B932B1296FA010C0160
:107F200087BEE89511244E5F5F4FF1E0A038BF0790
:107F300051F7F601A7BEE89507B600FCFDCF97BE46
:107F4000E89526C08437B1F42ED02DD0F82E2BD052
:107F50003CD0F601EF2C8F010F5F1F4F84911BD097
:107F6000EA94F801C1F70894C11CD11CFA94CF0C13
:107F7000D11C0EC0853739F428D08EE10CD085E9AC
:107F80000AD08FE07ACF813511F488E018D01DD067
:107F900080E101D065CF982F8091C00085FFFCCF94
:107FA0009093C60008958091C00087FFFCCF809118
:107FB000C00084FD01C0A8958091C6000895E0E648
:107FC000F0E098E1908380830895EDDF803219F02E
:107FD00088E0F5DFFFCF84E1DECF1F93182FE3DFCA
:107FE0001150E9F7F2DF1F91089580E0E8DFEE27F6
:047FF000FF270994CA
:027FFE00040479
:00000001FF
